S01C0000426C7565746F6F74684C6F636B436F6E74726F6C2E73726563E8
S113000051C000006CC000006AC0000068C000005D
S113001066C0000064C0000062C0000060C0000050
S11300205EC000005CC000005AC0000058C0000060
S113003056C00000E9C4000052C0000050C00000D7
S11300404EC000004CC000004AC0000048C0000080
S113005046C0000044C0000042C0000040C0000090
S11300603EC000003CC000003AC0000038C00000A0
S113007036C0000034C0000032C0000030C00000B0
S11300802EC000002CC000002AC000003A03480320
S113009099036E03B8030A04EA0321042C043C0404
S11300A04504550411241FBECFEFD0E4DEBFCDBFFD
S11300B011E0A0E0B1E0E6E6FCE000E00BBF02C026
S11300C007900D92AA3FB107D9F722E0AAEFB1E059
S11300D001C01D92A936B207E1F7F9D4C2C590CF89
S11300E08FEE85B90000189B45C083B1809581FDD2
S11300F043C083B1809582FD41C083B1809583FD67
S11301003FC08FED85B90000189B3CC083B180953A
S113011081FD3AC083B1809582FD38C083B180955A
S113012083FD36C08FEB85B90000189B33C083B1C3
S1130130809581FD31C083B1809582FD2FC083B14C
S1130140809583FD2DC08FE785B9000093B190950C
S1130150892F817090FD26C093B1909591FD24C0A4
S113016093B1909592FD22C093B1909593FF1FC0D7
S113017084E4089581E3089584E3089587E308956A
S11301808AE2089582E3089585E3089588E3089553
S113019080E3089583E3089586E3089589E3089549
S11301A083E2089581E4089582E4089583E4089540
S11301B08BE08093810082E080936F008FB780682A
S11301C08FBF0895181619069CF440E050E077E0BC
S11301D063E00BC000002150310921153105D1F72E
S11301E04F5F5F4F4817590719F0272F362FF2CF6B
S11301F00895169888B9179A0000179882E090E03D
S1130200E1CF089581E0F5CF0895813118F4815844
S1130210F0CF08958155EDCF089584E690E0D2DFC4
S113022088E3E7DF86E0E5DF8FE0E3DF81E0E1DF1D
S11302308AE090E0C7CF0895169A88B9179A00000B
S1130240179881E090E0BECF08950F931F93CF934A
S1130250DF93182FEB01D6DF8881882359F001E062
S1130260010F812FD2DF8991E7DF8881882311F084
S1130270102FF5CFDF91CF911F910F910895813009
S113028081F0E1ECF0E0808188618083E2ECF0E0D1
S113029080818660808387E68093C4001092C500C5
S11302A00895E9ECF0E0808188618083EAECF0E075
S11302B080818660808387E68093CC001092CD0095
S11302C00895813029F48091C800882384F008952A
S11302D08091C0008823ACF4A6ECB0E0E0ECF0E040
S11302E08C918093FA0180818823D4F30895AEEC35
S11302F0B0E0E8ECF0E08C918093FA0180818823EF
S1130300D4F30895613041F0E0ECF0E0908195FF82
S1130310FDCF8093C6000895E8ECF0E0908195FF4E
S1130320FDCF8093CE000895CF93C9B1813091055C
S113033061F082309105F1F0892B09F041C061E050
S113034081E0E0DF81E090E03DC02091FE012111D9
S113035039C061E080E0D6DF60E071E081E075DF04
S113036088E893E12FDF6DE071E081E06EDF82E0E9
S113037090E028C02091FE01222321F161E081E078
S1130380C1DF6DE271E081E060DF88E893E11ADFAC
S11303908C2F90E08095909584FD0BC08091FE0198
S11303A0882339F068E371E081E04FDF81E090E079
S11303B009C06BE471E081E048DF81E090E002C0B5
S11303C080E090E0CF910895813041F0E0ECF0E0DE
S11303D080818823ECF78091C6000895E8ECF0E072
S11303E080818823ECF78091CE000895E1E5F2E066
S11303F089E592E01192E817F907E1F70895CF93A0
S1130400DF93EC018130910501F18230910541F1D6
S1130410009709F04EC08091C000882334F4809185
S11304204002811102C04DDF52C08091C000882378
S11304300CF04DC080914002882309F448C010920A
S11304403C0210926602D2DF40C0809140028823B1
S113045099F1809166028A3291F1C2E0D0E037C00E
S113046080914002882371F18091C00088237CF53B
S11304702CC080E0A9DF809366028A3259F0E091B3
S11304803C0291E09E0F90933C02F0E0EF5AFD4F46
S1130490808308C0E0913C02F0E0EF5AFD4F1082E7
S11304A0C0933F02809166028A3219F7C1E0D0E01E
S11304B00EC0C0E0D0E00BC0C0E0D0E008C0C0E097
S11304C0D0E005C0C0E0D0E002C0C1E0EBCFCE0177
S11304D0DF91CF9108951F93CF93DF93EC0100DE5A
S11304E0182FC130D10551F11CF4209741F080C080
S11304F0C230D10581F0C330D105C1F079C0882361
S113050009F48FC080916502882309F48AC010928F
S11305103C026CDF82C080916502882309F46EC0BE
S11305201A3209F06EC0C0E0D0E07BC08091650251
S1130530882309F469C0111174C069C080916502EF
S1130540882309F467C0111168C06BC0812F8D7FA7
S1130550813409F450C0E0913C0281E08E0F809315
S11305603C02F0E0EF5AFD4F10838091640288232F
S113057029F0812F61DEC2E0D0E053C08AE25CDE64
S1130580C2E0D0E04EC080916402882329F16BE67A
S113059071E081E05ADEE0913C02F0E0EF5AFD4F59
S11305A010821092FB0110E0C12FD0E0CF5ADD4F32
S11305B068818091FB0191E0980F9093FB0190E09A
S11305C042D38881882311F01F5FEECF81E08093AE
S11305D06802C2E0D0E025C0E0913C02F0E0EF5AAE
S11305E0FD4F108281E080933F02C2E0D0E019C049
S11305F0C0E0D0E016C0C2E0D0E013C0C0E0D0E05C
S113060010C0C3E0D0E00DC0C0E0D0E00AC0C1E03B
S1130610D0E007C0C0E0D0E004C01A3209F096CFA1
S1130620B2CFCE01DF91CF911F9108951092FF01B7
S113063010926502109240021092630210926202BC
S113064081E08093FE011092640210923F020895AB
S1130650CF93DF93EC0144DD29B130E02095309550
S113066022952170CC30D10508F041C1FE01EA5B2E
S1130670FF4FDBC2DBDF81E08093FE011092640256
S1130680B5DE6BE471E081E0E0DDC1E0D0E04CC1B7
S113069021110DC09091FE01992349F08FEF82B989
S11306A068E371E081E0D1DDC9E0D0E03DC181348F
S11306B049F481E08093650299DE65E471E081E0AC
S11306C0C4DD18C1823409F02FC181E08093400257
S11306D08DDE67E771E081E0B8DD12C121110DC044
S11306E09091FE01992349F08FEF82B968E371E09C
S11306F081E0ABDDC9E0D0E017C1833451F410923E
S113070040026BE471E081E0A0DD90DFC1E0D0E065
S11307100BC180913F02882309F4F2C081E08093E9
S1130720FF011092400263E971E08FDDC4E0D0E084
S1130730FBC021110DC08091FE01882349F08FEF89
S113074082B968E371E081E080DDC9E0D0E0ECC00B
S113075080913F02882309F4CDC081E08093FF019A
S1130760109265026FEA71E070DDC4E0D0E0DCC095
S113077021110DC09091FE01992349F08FEF82B9A8
S113078068E371E081E061DDC9E0D0E0CDC083348D
S113079049F42CDE4BDF6BE471E081E056DDC1E00F
S11307A0D0E0C2C08091FF018111BEC08091FE01E2
S11307B0882349F010926302109262026BEC71E09C
S11307C081E043DDA3C069ED71E081E03EDDC5E079
S11307D0D0E0AAC021110DC08091FE01882349F008
S11307E08FEF82B968E371E081E02FDDC9E0D0E0EA
S11307F09BC080916202909163028E3E924008F405
S113080085C0F4DD6BE471E081E01FDD0FDFC1E042
S1130810D0E08AC0813409F485C0833409F084C0EF
S113082081E0809364028093650210923F021092EB
S11308306802DCDD65E471E081E007DDC8E0D0E05A
S113084073C0811171C0D2DD6BE471E081E0FDDC25
S1130850EDDEC1E0D0E068C080916802882309F42D
S113086063C0109265021092640269ED71E081E048
S1130870ECDCC5E0D0E058C081E0809365021092C2
S11308803F02B4DDCAE0D0E04FC080913F0288232C
S113089009F44AC081E08093FF01109265026FEA77
S11308A071E0D3DCCBE0D0E03FC08091FF01811147
S11308B03BC08091FE01882391F010926302109254
S11308C062026BEC71E081E0C0DC84EF91E07ADCE1
S11308D068E371E081E0B9DCC9E0D0E025C012B87A
S11308E069ED71E081E0B1DCC5E0D0E01DC0C0E09D
S11308F0D0E01AC081E080936502C2E0D0E014C069
S113090081E080934002C3E0D0E00EC08091620297
S11309109091630201969093630280936202C6E011
S1130920D0E002C0C7E0D0E0CE01DF91CF910895BE
S113093080915102882351F080E08F5FE82FF0E02E
S1130940EF5AFD4F90819111F8CF089580E00895FA
S1130950CF93C0E001C0CF5F8C2F90E06CD18111A8
S1130960FACF8C2FCF9108950F931F93CF93DF93DA
S11309708130910549F08230910519F0892B09F0F5
S11309803CC081E090E03BC02091FF012223B9F1FB
S113099081E080936102109267021092FB01D8DF1C
S11309A0C82FC6DFC81310926102009161020BC008
S11309B0CF5ADD4F9881891719F01092610215C042
S11309C01F5F1093670210916702C12FD0E0CE0120
S11309D032D1882319F00111EBCF07C08091610255
S11309E0882319F01092FE0103C081E08093FE0178
S11309F01092FF0182E090E002C080E090E0DF917D
S1130A00CF911F910F9108951F920F920FB60F92DD
S1130A1011240BB60F92EF92FF920F931F932F9313
S1130A203F934F935F936F937F938F939F93AF9372
S1130A30BF93CF93DF93EF93FF93C0E0D2E00F2EE9
S1130A40FCE3EF2EF2E0FF2EF02D8E014E815F814C
S1130A50688579858A819B81AC81BD814817590756
S1130A606A077B0758F0EA85FB8588819981099597
S1130A70998388831E821F8218861986F8018681CD
S1130A809781A085B1850196A11DB11D86839783A9
S1130A90A087B1872C96CE15DF05B9F6FF91EF91AB
S1130AA0DF91CF91BF91AF919F918F917F916F9182
S1130AB05F914F913F912F911F910F91FF90EF9074
S1130AC00F900BBE0F900FBE0F901F9018958FEFD5
S1130AD081B912B890EF94B99FE095B987B918B865
S1130AE01AB88BB980E0CBDB81E0C9DB96DB1092CE
S1130AF001021092000281E090E0A0E0B0E0809357
S1130B00020290930302A0930402B093050280931F
S1130B10060290930702A0930802B093090288E2A8
S1130B2093E090930B0280930A0210920D021092AC
S1130B300C0285E090E0A0E0B0E080930E02909378
S1130B400F02A0931002B0931102809312029093AB
S1130B501302A0931402B09315022FEF31E03093E7
S1130B6017022093160210921902109218024AE0FA
S1130B7050E060E070E040931A0250931B026093CF
S1130B801C0270931D0240931E0250931F02609337
S1130B902002709321022BE632E03093230220934B
S1130BA0220210922502109224024FE050E060E0ED
S1130BB070E04093260250932702609328027093BA
S1130BC0290240932A0250932B0260932C027093C3
S1130BD02D0224EB34E030932F0220932E02109246
S1130BE03102109230028093320290933302A09328
S1130BF03402B09335028093360290933702A09367
S1130C003802B093390284E991E090933B028093D7
S1130C103A0210928500109284008DE790E0909340
S1130C20890080938800C4DAFFCFEE0FFF1F059080
S1130C30F491E02D0994F999FECF92BD81BDF89A03
S1130C40992780B50895262FF999FECF1FBA92BD32
S1130C5081BD20BD0FB6F894FA9AF99A0FBE019699
S1090C600895F894FFCF93
S1130C66556E6C6F636B696E672E2E2E005072651F
S1130C767373204120746F204C6F636B2043207480
S1130C866F204368616E67652050696E004C6F6320
S1130C966B696E672E2E2E00414C41524D21204524
S1130CA66E7465722050696E3A20004120666F7238
S1130CB6204B6579706164202020204220666F7283
S1130CC620426C7565746F6F7468004368616E6763
S1130CD6696E672E2E2E0057616974696E672074DB
S1130CE66F2052656320204320746F2043616E6336
S1130CF6656C00436865636B696E672E2E2E202033
S1130D062020204320746F2043616E63656C00438A
S1130D166865636B696E672E2E2E20202020204383
S1130D2620746F2063616E63656C00496E636F7235
S1130D36726563742050696E005072657373204146
S1130D4620746F204C6F636B204320746F2063689C
S10D0D56616E67652050696E0000AD
S9030000FC
