S01C0000426C7565746F6F74684C6F636B436F6E74726F6C2E73726563E8
S11300004EC0000069C0000067C0000065C0000069
S113001063C0000061C000005FC000005DC000005C
S11300205BC0000059C0000057C0000055C000006C
S113003053C0000052C400004FC000004DC0000077
S11300404BC0000049C0000047C0000045C000008C
S113005043C0000041C000003FC000003DC000009C
S11300603BC0000039C0000037C0000035C00000AC
S113007033C0000031C000002FC000002DC00000BC
S11300802BC0000029C0000027C0000023032F0359
S11300905E0346036C039A038B03AC03B50311247C
S11300A01FBECFEFD0E4DEBFCDBF11E0A0E0B1E0D2
S11300B0EEE8FBE000E00BBF02C007900D92AC3EFF
S11300C0B107D9F722E0ACEEB1E001C01D92AB3527
S11300D0B207E1F765D459C593CF8FEE85B9000017
S11300E0189B45C083B1809581FD43C083B1809541
S11300F082FD41C083B1809583FD3FC08FED85B9FA
S11301000000189B3CC083B1809581FD3AC083B147
S1130110809582FD38C083B1809583FD36C08FEB16
S113012085B90000189B33C083B1809581FD31C02F
S113013083B1809582FD2FC083B1809583FD2DC04E
S11301408FE785B9000093B19095892F817090FD58
S113015026C093B1909591FD24C093B1909592FDE2
S113016022C093B1909593FF1FC084E4089581E366
S1130170089584E3089587E308958AE2089582E365
S1130180089585E3089588E3089580E3089583E35B
S1130190089586E3089589E3089583E2089581E448
S11301A0089582E4089583E408958BE080938100A8
S11301B082E080936F008FB780688FBF0895181610
S11301C019069CF440E050E077E063E00BC00000C7
S11301D02150310921153105D1F74F5F5F4F481781
S11301E0590719F0272F362FF2CF0895169888B99A
S11301F0179A0000179882E090E0E1CF089581E01B
S1130200F5CF0895813118F48158F0CF08958155C0
S1130210EDCF089584E690E0D2DF88E3E7DF86E05F
S1130220E5DF8FE0E3DF81E0E1DF8AE090E0C7CF44
S11302300895169A88B9179A0000179881E090E0FB
S1130240BECF08950F931F93CF93DF93182FEB0125
S1130250D6DF8881882359F001E0010F812FD2DF96
S11302608991E7DF8881882311F0102FF5CFDF9182
S1130270CF911F910F910895813081F0E1ECF0E06E
S1130280808188618083E2ECF0E0808186608083F5
S113029087E68093C4001092C5000895E9ECF0E06D
S11302A0808188618083EAECF0E0808186608083CD
S11302B087E68093CC001092CD000895813029F414
S11302C08091C800882384F008958091C000882319
S11302D0ACF4A6ECB0E0E0ECF0E08C918093EC019F
S11302E080818823D4F30895AEECB0E0E8ECF0E02C
S11302F08C918093EC0180818823D4F3089561303C
S113030041F0E0ECF0E0908195FFFDCF8093C600D2
S11303100895E8ECF0E0908195FFFDCF8093CE0046
S113032008958130910559F082309105E9F0892BC7
S113033081F561E081E0E3DF81E090E008952091C0
S1130340F001211128C061E080E0D9DF60E071E0B4
S113035081E078DF88E893E132DF6DE071E081E0ED
S113036071DF82E090E008952091F001222399F05A
S113037061E081E0C4DF6DE271E081E063DF88E881
S113038093E11DDF68E371E081E05CDF81E090E0F0
S1130390089580E090E00895813041F0E0ECF0E0D1
S11303A080818823ECF78091C6000895E8ECF0E0A2
S11303B080818823ECF78091CE000895E3E4F2E095
S11303C08BE492E01192E817F907E1F70895CF93CF
S11303D0DF93EC018130910501F18230910541F107
S11303E0009709F04EC08091C000882334F48091B6
S11303F03202811102C062DF52C08091C0008823A2
S11304000CF04DC080913202882309F448C0109248
S11304102E0210925802D2DF40C08091320288230B
S113042099F1809158028A3291F1C2E0D0E037C04C
S113043080913202882371F18091C00088237CF579
S11304402CC080E0A9DF809358028A3259F0E091F1
S11304502E0291E09E0F90932E02F0E0ED5BFD4F93
S1130460808308C0E0912E02F0E0ED5BFD4F108226
S1130470C0933102809158028A3219F7C1E0D0E06A
S11304800EC0C0E0D0E00BC0C0E0D0E008C0C0E0C7
S1130490D0E005C0C0E0D0E002C0C1E0EBCFCE01A7
S11304A0DF91CF9108950F931F93CF93DF93EC01C6
S11304B014DE182FC130D10551F11CF4209741F0FE
S11304C085C0C230D10581F0C330D105C1F07EC0F2
S11304D0882309F494C080915702882309F48FC0BB
S11304E010922E026BDF87C080915702882309F493
S11304F073C01A3209F073C0C0E0D0E080C08091AC
S11305005702882309F46EC0111179C06EC080911E
S11305105702882309F46CC011116DC070C0812F7B
S11305208D7F813409F455C0E0912E0281E08E0F55
S113053080932E02F0E0ED5BFD4F10838091560214
S1130540882329F0812F75DEC2E0D0E058C08AE20A
S113055070DEC2E0D0E053C080915602882351F18E
S113056068E571E081E06EDEE0912E02F0E0ED5B83
S1130570FD4F108281E080935A021092ED0110E049
S113058001E002B9C12FD0E0CD5BDD4F68818091DD
S1130590ED0191E0980F9093ED0190E0E8D288810D
S11305A0882311F01F5FEDCF81E080935A02C2E0EF
S11305B0D0E025C0E0912E02F0E0ED5BFD4F10820B
S11305C081E080933102C2E0D0E019C0C0E0D0E005
S11305D016C0C2E0D0E013C0C0E0D0E010C0C3E059
S11305E0D0E00DC0C0E0D0E00AC0C1E0D0E007C058
S11305F0C0E0D0E004C01A3209F091CFADCFCE01F3
S1130600DF91CF911F910F9108951092F1011092F3
S1130610570210923202109255021092540281E055
S11306208093F00110925602109231020895CF93F4
S1130630DF93EC0152DDC930D10508F0A4C0FE01FE
S1130640EA5BFF4F86C2E1DF81E08093F001109204
S11306505602B4DE68E371E081E0F4DD9EC08134CB
S113066049F481E080935702A9DE64E671E081E0F9
S1130670E9DD98C0823409F090C081E080933202B1
S11306809DDE6AE671E081E0DDDD94C0833441F4EF
S11306901092320268E371E081E0D4DDB6DF7DC000
S11306A080913102882309F485C081E08093F101AF
S11306B01092320266E871E0C5DD84C08091310297
S11306C0882309F46FC081E08093F10110925702EE
S11306D062EA71E0B7DD76C0833439F46FDE95DF0A
S11306E068E371E081E0AEDD58C08091F1018111D1
S11306F069C08091F001882349F01092550210924C
S113070054026EEB71E081E09DDD61C06CEC71E040
S113071081E098DD6AC080915402909155028E3E2A
S1130720924008F454C04ADE68E371E081E08ADD57
S11307306CDF33C0813461F1833409F056C081E049
S113074080935602809357021092310237DE64E69A
S113075071E081E077DD4EC081111AC02FDE68E3BD
S113076071E081E06FDD51DF18C080915A02882367
S113077009F440C010925702109256026CEC71E0DA
S113078081E060DD32C081E082B980E090E036C073
S113079088E082B987E090E031C082E082B981E0EC
S11307A090E02CC083E082B981E08093570282E01C
S11307B090E024C084E082B981E08093320283E037
S11307C090E01CC085E082B984E090E017C086E028
S11307D082B98091540290915502019690935502EA
S11307E08093540286E090E009C087E082B985E0F6
S11307F090E004C089E082B988E090E0DF91CF9175
S1130800089580914302882351F080E08F5FE82FA0
S1130810F0E0ED5BFD4F90819111F8CF089580E0F9
S11308200895CF93C0E001C0CF5F8C2F90E097D1A3
S11308308111FACF8C2FCF9108950F931F93CF93EB
S1130840DF938130910549F08230910519F0892BAD
S113085009F03CC081E090E03BC02091F1012223EB
S1130860B9F181E080935302109259021092ED0184
S1130870D8DFC82FC6DFC813109253020091530269
S11308800BC0CD5BDD4F9881891719F0109253028C
S113089015C01F5F1093590210915902C12FD0E067
S11308A0CE015DD1882319F00111EBCF07C08091EF
S11308B05302882319F01092F00103C081E0809361
S11308C0F0011092F10182E090E002C080E090E03B
S11308D0DF91CF911F910F9108951F920F920FB640
S11308E00F9211240BB60F92EF92FF920F931F9366
S11308F02F933F934F935F936F937F938F939F9324
S1130900AF93BF93CF93DF93EF93FF93C2EFD1E005
S11309100F2EFEE2EF2EF2E0FF2EF02D8E014E811F
S11309205F81688579858A819B81AC81BD81481707
S113093059076A077B0758F0EA85FB858881998106
S11309400995998388831E821F8218861986F80167
S113095086819781A085B1850196A11DB11D8683ED
S11309609783A087B1872C96CE15DF05B9F6FF9142
S1130970EF91DF91CF91BF91AF919F918F917F9133
S11309806F915F914F913F912F911F910F91FF9024
S1130990EF900F900BBE0F900FBE0F901F90189505
S11309A08FEF81B912B890EF94B99FE095B987B9E8
S11309B018B88091ED0191E0980F9093ED0160E3F8
S11309C090E0D5D08091ED0191E0980F9093ED01E6
S11309D060E390E0CCD08091ED0191E0980F90938A
S11309E0ED0160E390E0C3D08091ED0191E0980FB8
S11309F09093ED0160E390E0BAD08091ED0191E035
S1130A00980F9093ED0160E090E0B1D080E034DC89
S1130A1081E032DCFFDB1092F3011092F20181E0FD
S1130A2090E0A0E0B0E08093F4019093F501A093EE
S1130A30F601B093F7018093F8019093F901A09324
S1130A40FA01B093FB0187E193E09093FD01809359
S1130A50FC011092FF011092FE0185E090E0A0E0FD
S1130A60B0E08093000290930102A0930202B0933D
S1130A7003028093040290930502A0930602B093AC
S1130A80070227EE31E03093090220930802109206
S1130A900B0210920A024AE050E060E070E04093DA
S1130AA00C0250930D0260930E0270930F02409358
S1130AB0100250931102609312027093130223E503
S1130AC032E0309315022093140210921702109210
S1130AD016024FE050E060E070E04093180250933B
S1130AE0190260931A0270931B0240931C025093E4
S1130AF01D0260931E0270931F022DE134E03093B7
S1130B002102209320021092230210922202809349
S1130B10240290932502A0932602B0932702809387
S1130B20280290932902A0932A02B0932B0281E910
S1130B3091E090932D0280932C02109285001092E4
S1130B4084008DE790E090938900809388002DDBEA
S1130B50FFCFEE0FFF1F0590F491E02D0994F99952
S1130B60FECF92BD81BDF89A992780B50895262FAE
S1130B70F999FECF1FBA92BD81BD20BD0FB6F8947E
S1110B80FA9AF99A0FBE01960895F894FFCFE1
S1130B8E556E6C6F636B696E672E2E2E00507265F8
S1130B9E7373204120746F204C6F636B2043207459
S1130BAE6F204368616E67652050696E004C6F63F9
S1130BBE6B696E672E2E2E004120666F72204B6578
S1130BCE79706164202020204220666F7220426C6E
S1130BDE7565746F6F7468004368616E67696E67DC
S1130BEE2E2E2E0050696E3A200057616974696E7C
S1130BFE6720746F2052656320204320746F204356
S1130C0E616E63656C00436865636B696E672E2E57
S1130C1E2E20202020204320746F2043616E6365B4
S1130C2E6C00436865636B696E672E2E2E20202040
S1130C3E20204320746F2063616E63656C00496EDF
S1130C4E636F72726563742050696E0050726573BF
S1130C5E73204120746F204C6F636B204320746F9C
S10F0C6E206368616E67652050696E00A9
S9030000FC
